:020000040800F2
:100000003004002001010008710500080F050008F8
:100010006D05000875010008370E0008000000009B
:10002000000000000000000000000000D9090008E6
:10003000C902000800000000E10800087D0B00086C
:100040001B0100081B0100081B0100081B01000820
:100050001B0100081B010008110300086D030008C4
:100060001B0100081B0100081B0100081B01000800
:100070001B0100081B0100081B0100081B010008F0
:100080001B0100081B0100081B0100081B010008E0
:100090001B0100081B0100081B0100081B010008D0
:1000A0001B0100081B0100081B0100081B010008C0
:1000B0001B0100081B0100081B0100081B010008B0
:1000C0001B0100081B0100081B0100081B010008A0
:1000D0001B010008E10B00081B0100081B010008C0
:1000E000450300081B0100081B010008DFF80CD0C5
:1000F00000F02EF800480047ED0F00083004002003
:100100000648804706480047FEE7FEE7FEE7FEE7B1
:10011000FEE7FEE7FEE7FEE7FEE7FEE7810B0008ED
:10012000ED00000830B50B460146002020220124D6
:1001300009E021FA02F59D4205D303FA02F5491BB5
:1001400004FA02F52844151EA2F10102F1DC30BDCB
:10015000064C074D06E0E06840F0010394E8070014
:1001600098471034AC42F6D3FFF7C4FF641600087A
:100170008416000800BFFEE770B50024002000F0E0
:1001800091F8192000F0A1F8012000F08BF81E2052
:1001900000F0A7F808E0601CC4B2012000F095F858
:1001A000642C01DD002070BD4021194800F09DF94C
:1001B0000028F0D1002408E0601CC4B2012000F047
:1001C00090F8642C01DD0020EDE74021104800F09C
:1001D0008CF90028F0D0002505E000F051F80D4919
:1001E0004855681CC5B2052DF7DB0A480078094957
:1001F000497808440749897808440649C978084479
:1002000004490979884201D10120CCE70020CAE7DE
:10021000000C01402400002008B50121082000F056
:1002200061FB14208DF8030003208DF802004020AC
:10023000ADF800006946044800F0CCF840210248BF
:1002400000F05EF908BD0000000C014010B500BFD1
:1002500040210A4800F049F90028F9D100BF4021A7
:10026000064800F042F90028F9D0282000F039F8BB
:100270004021024800F039F910BD0000000C014097
:1002800070B50025002408E0FFF7E0FFC4F1070186
:1002900088402843C5B2601CC4B2082CF4DB284651
:1002A00070BD000010B50446012C04D14021054862
:1002B00000F026F904E01CB94021024800F01EF9C4
:1002C00010BD0000000C0140704700B5034603E07C
:1002D0004FF47A7000F005F8181EA3F10103F7D16E
:1002E00000BD00EBC001C9004FF0E02251610021C8
:1002F00091610521116100BF4FF0E021096901F40E
:1003000080310029F8D004214FF0E02211617047BC
:1003100010B5012000F04AF801280DD1022107484C
:1003200000F0E3F828B906480088401E00B20449EE
:100330000880012000F034F810BD000000180140D2
:100340002200002010B54FF4804000F02FF8012863
:1003500008D105480088401C034908804FF48040BC
:1003600000F01EF810BD00002000002010B5022093
:1003700000F01CF801280DD10121074800F0B5F864
:1003800028B906480088401C00B2044908800220B1
:1003900000F006F810BD0000001801402200002007
:1003A0000149086070470000140401400146002024
:1003B0000022074B1B6803EA0102054B14331B683C
:1003C0000B4013B10AB1012000E00020704700008B
:1003D000000401402DE9F0410246002500260020DE
:1003E00000230024002791F803C00CF00F0591F8BA
:1003F00003C00CF0100CBCF1000F03D091F802C048
:100400004CEA050591F800C0BCF1000F31D014682A
:1004100000202BE04FF0010C0CFA00F3B1F800C003
:100420000CEA03069E4220D183004FF00F0C0CFA19
:1004300003F7BC4305FA03FC4CEA040491F803C03B
:10044000BCF1280F06D14FF0010C0CFA00FCC2F8E9
:1004500014C00AE091F803C0BCF1480F05D14FF079
:10046000010C0CFA00FCC2F810C0401C0828D1D3C3
:100470001460B1F800C0BCF1FF0F34DD54680020F7
:100480002EE000F1080C4FF0010808FA0CF3B1F867
:1004900000C00CEA03069E4221D183004FF00F0CEE
:1004A0000CFA03F7BC4305FA03FC4CEA040491F888
:1004B00003C0BCF1280F05D100F1080C08FA0CF8B4
:1004C000C2F8148091F803C0BCF1480F07D100F1C5
:1004D000080C4FF0010808FA0CF8C2F81080401C14
:1004E0000828CED35460BDE8F0810246002093680E
:1004F0000B400BB1012000E00020704741617047C4
:10050000016170470AB1016100E04161704700BFBD
:10051000FEE7000010B5002401210A48FFF7E5FFBF
:1005200068B91420FFF7D1FE02E01420FFF7CDFEDA
:1005300001210448FFF7D9FF0028F6D00124204606
:1005400010BD00000008014008B50121042000F0A2
:10055000C9F928208DF803000120ADF80000694694
:100560000148FFF737FF08BD0008014000BFFEE764
:100570007047000070B5002100230F22C47804B337
:10058000154C246804F4E064C4F5E064210AC1F168
:100590000403CA40447804FA03F1847814402143E8
:1005A00009010E4C0678A155047804F01F050124BA
:1005B000AC4005786D11AD0005F1E025C5F80041AE
:1005C00009E0047804F01F050124AC40044D0678CE
:1005D000761145F8264070BD0CED00E000E400E027
:1005E00080E100E002490143024A116070470000C7
:1005F0000000FA050CED00E070B500240EE00021CB
:10060000204600F0D9F8002504E0002000F04EF963
:10061000681CC5B2802DF8DB601CC4B2082CEEDB70
:1006200070BD70B5002406E0002500E06D1CB5F536
:100630007A7FFBD3641CB4F57A7FF5D300F048F8D9
:10064000AE2000F019F9D52000F016F9802000F056
:1006500013F9A82000F010F93F2000F00DF9D32085
:1006600000F00AF9002000F007F9402000F004F93A
:10067000A12000F001F9C82000F0FEF8DA2000F017
:10068000FBF8122000F0F8F8812000F0F5F8CF20F8
:1006900000F0F2F8D92000F0EFF8F12000F0ECF8CB
:1006A000DB2000F0E9F8302000F0E6F8A42000F0AC
:1006B000E3F8A62000F0E0F88D2000F0DDF814202B
:1006C00000F0DAF8AF2000F0D7F8FFF795FF70BD23
:1006D00008B50121042000F005F90121082000F0EF
:1006E00001F910208DF8030003208DF802004FF46B
:1006F0000050ADF8000069461D48FFF76BFE4FF44F
:100700000040ADF8000069461948FFF763FE10206D
:10071000ADF8000069461748FFF75CFE4FF4004053
:10072000ADF8000069461348FFF754FE8020ADF88D
:10073000000069460E48FFF74DFE00224FF40051BD
:100740000B48FFF7DFFE0122D1030948FFF7DAFE6D
:10075000012210210748FFF7D5FE0122D1030548E9
:10076000FFF7D0FE012280210148FFF7CBFE08BD34
:10077000000C01400008014070B50546002415E05A
:100780008020204100EA05024FF400410948FFF7AC
:10079000B9FE012251030748FFF7B4FE00224FF4CF
:1007A00000510448FFF7AEFE601CC4B2082CE7DB22
:1007B00070BD0000000C014070B505460C4645F0C8
:1007C000B00000F059F8102141EA141000F054F87C
:1007D00004F00F0000F050F870BD00002DE9F0416A
:1007E00005460E461746721ED206110E6A1E5206A6
:1007F000100EFFF7E1FF002409E0A7F12001134AE2
:1008000002EB0111085D00F051F8601CC4B2082C25
:10081000F3DB721ED206110E6A1E012303EB4202A5
:10082000D0B2FFF7C9FF00240BE0A7F12001074A6F
:1008300002EB011204F10801505C00F037F8601C73
:10084000C4B2082CF1DBBDE8F08100007410000890
:100850002DE9F04107460E461546002407E02A5DC3
:100860003019C1B23846FFF7B9FF601CC4B2285D29
:100870000028F4D1BDE8F08110B5044600228021A3
:100880000848FFF73FFE00224FF400410648FFF7FB
:1008900039FE2046FFF770FF012280210148FFF753
:1008A00031FE10BD000C01400008014010B50446A7
:1008B000002280210848FFF725FE0122D1030748C6
:1008C000FFF720FE2046FFF757FF01228021024854
:1008D000FFF718FE10BD0000000C014000080140A9
:1008E0007047000029B1064A92690243044B9A619D
:1008F00004E0034A92698243014B9A617047000009
:100900000010024030B500210022002400232D4DAC
:100910006D6805F00C0121B1042905D0082923D107
:1009200005E0294D056022E0274D05601FE0254DBB
:100930006D6805F47012234D6D6805F4803402254E
:1009400005EB92421CB9214D554305600BE01D4D4E
:100950006D6805F400351DB11C4D5543056002E07E
:10096000194D5543056002E0174D056000BF00BFFB
:10097000144D6D6805F0F0010909154D6B5C0568B3
:10098000DD4045600F4D6D6805F4E061090A104DCA
:100990006B5C4568DD4085600A4D6D6805F460510B
:1009A000C90A0B4D6B5C4568DD40C560054D6D683F
:1009B00005F44041890B074D6B5CC568B5FBF3F549
:1009C000056130BD0010024000127A0000093D00B0
:1009D00000000020100000207047000000B587B024
:1009E00001218803FFF77EFF01210420FFF77AFF32
:1009F00018208DF81B0003208DF81A004FF40070AA
:100A0000ADF8180006A92148FFF7E4FC48208DF84E
:100A10001B0003208DF81A004FF48060ADF8180019
:100A200006A91A48FFF7D6FC4FF4E13002900020E7
:100A3000ADF814000C20ADF812000020ADF8100045
:100A4000ADF80E00ADF80C0002A9114800F082F9D3
:100A5000012240F225510E4800F057F94FF4A060F2
:100A6000FFF7C0FD25208DF8040001208DF8070058
:100A70008DF805008DF8060001A8FFF77BFD012128
:100A8000034800F00CF907B000BD00000008014069
:100A90000038014010B500F001F810BD0CB5002081
:100AA000019000903348006840F48030314908607C
:100AB00000BF3048006800F4003000900198401CEE
:100AC0000190009818B90198B0F5A06FF1D12948AC
:100AD000006800F4003010B10120009001E0002017
:100AE00000900098012843D12348006840F010008E
:100AF000214908600846006820F0030008600846A5
:100B0000006840F0020008601A48406819494860CF
:100B10000846406848600846406840F48060486085
:100B20000846406820F47C1048600846406840F45D
:100B3000E81048600846006840F08070086000BF18
:100B40000C48006800F000700028F9D0094840689F
:100B500020F00300074948600846406840F0020062
:100B6000486000BF0348406800F00C000828F9D135
:100B70000CBD000000100240002002407047000041
:100B800010B51348006840F001001149086008469C
:100B90004068104908400E494860084600680E4900
:100BA00008400B4908600846006820F4802008606F
:100BB0000846406820F4FE0048604FF41F0088603B
:100BC000FFF768FF4FF000600449086010BD0000A7
:100BD000001002400000FFF8FFFFF6FE08ED00E005
:100BE00010B540F22551214800F065F801283BD1AD
:100BF0001E4800F01BF9C4B21D48007828B9FF2C2C
:100C00002CD101201A49087028E0194800780128E1
:100C100018D118480078032809DA174815490978C7
:100C2000445414480078401C1249087016E01248D9
:100C300010490978445400200E49087002200C49DC
:100C400008700BE00A480078022807D1FE2C05D175
:100C500001200A49087000200549087040F225511A
:100C6000024800F00DF800BF10BD00000038014040
:100C70001D0000201E00002019000020140000208C
:100C800010B50022002340F66A14A14200D100BF33
:100C90000A1201249440A3B2DC43048010BD21B1A8
:100CA000828942F40052828104E082894DF6FF730A
:100CB0001A408281704770B5024600240023002547
:100CC000002040F66A16B14200D100BFC1F34215C0
:100CD00001F01F03012606FA03F3012D02D19689C4
:100CE000334006E0022D02D1168A334001E0968A95
:100CF00033400C12012606FA04F41688344013B16E
:100D00000CB1012000E0002070BDF0B503460024C6
:100D100000260025002040F66A17B94200D100BF26
:100D20001846C1F3421401F01F06012707FA06F521
:100D3000012C01D10C3004E0022C01D1103000E074
:100D400014301AB107682F43076002E00768AF4309
:100D50000760F0BD2DE9F04786B005460E46002439
:100D6000A24600BFA1460027B08900B100BF2F46B0
:100D70002C8A4CF6FF700440F08804432C82AC8926
:100D80004EF6F3100440B088318908437189084356
:100D90000443AC81AC8A4FF6FF400440B089044361
:100DA000AC8201A8FFF7AEFD1F48874202D1DDF8F3
:100DB00010A001E0DDF80CA0A88900F4004040B1CB
:100DC0000AEBCA0000EB0A1031684900B0FBF1F8E9
:100DD00007E00AEBCA0000EB0A1031688900B0FB9B
:100DE000F1F86420B8FBF0F004012009642101FB54
:100DF0001089A88900F4004040B1322000EBC900FE
:100E0000B0FBF1F000F00700044308E0322000EBF3
:100E100009106421B0FBF1F000F00F0004432C81B5
:100E200006B0BDE8F0870000003801400146888820
:100E3000C0F30800704700BFFEE700000FB4054B89
:100E400010B503A9044A029800F018F810BC5DF828
:100E500014FB0000D10F00082C00002002E008C89D
:100E6000121F08C1002AFAD170477047002001E024
:100E700001C1121F002AFBD1704700002DE9FF4F6E
:100E800089B09B460446002506E025280BD05A462B
:100E90000B999047641C6D1C20780028F5D10DB08B
:100EA0002846BDE8F08F0027B8460122474900E0F8
:100EB000074314F8013F203B02FA03F00842F7D140
:100EC00020782E2819D114F8010F47F004072A289A
:100ED0000ED06FF02F022078A0F1300109290CD834
:100EE00008EB880102EB410100EB0108641CF2E70A
:100EF0000A98641C50F8048B0A9020780028CED001
:100F0000642808D0692806D075281ED05A460B9947
:100F100090476D1C58E00A994FF00A0901C90A91DF
:100F2000002802DA40422D2102E0390504D52B21A8
:100F30008DF82010012103E0F90704D02021F7E704
:100F40008A4608AE0DE00021FAE70A994FF00A0937
:100F500001C90A91F7E74946FFF7E4F8303106F88E
:100F6000011D0028F7D1ADEB060000F1200978073C
:100F700001D44FF00108C84502DDA8EB090000E0EC
:100F800000208046002706E008A85A46C05D0B995D
:100F900090476D1C7F1C5745F6DB04E030205A4615
:100FA0000B9990476D1CB8F10001A8F10108F5DC20
:100FB00005E016F8010B5A460B9990476D1CB9F1E4
:100FC0000001A9F10109F4DC641C65E709280100AE
:100FD00000BF054A128802F08002002AF9D0024BB5
:100FE0001B1D1880704700000038014008B5FFF74E
:100FF000ABFAFFF7F3FCFFF70FF9FFF712FB412203
:1010000001210846FFF7EAFB0DA201210220FFF7AC
:101010001FFC13E0FFF77EFA80B1FFF7ADF850B187
:101020000948C0780090084883784278017807A082
:10103000FFF704FF02E00CA0FFF700FFEAE7000063
:1010400048656C6C6F0000002400002074656D70B2
:101050003A25642E256420202068756D693A256440
:101060002E25640D0A0000004572726F72210D0A70
:101070000000000000000000000000000000000070
:1010800000000000000000F8000000000000003335
:101090003000000000100C06100C060000000000DC
:1010A0000000000040C07840C0784000043F0404C5
:1010B0003F040400007088FC08300000001820FF86
:1010C000211E0000F008F000E018000000211C03C1
:1010D0001E211E0000F00888700000001E2123243D
:1010E0001927211010160E0000000000000000005B
:1010F00000000000000000E01804020000000007EB
:101100001820400000020418E000000000402018F1
:1011100007000000404080F0804040000202010FC4
:1011200001020200000000F0000000000101011FA8
:1011300001010100000000000000000080B070000C
:10114000000000000000000000000000000101019C
:10115000010101010000000000000000003030002B
:101160000000000000000000806018040060180605
:101170000100000000E010080810E000000F10203F
:1011800020100F00001010F8000000000020203F89
:101190002020000000700808088870000030282413
:1011A00022213000003008888848300000182020B4
:1011B00020110E000000C02010F8000000070424D9
:1011C000243F240000F8088888080800001921201E
:1011D00020110E0000E0108888180000000F112078
:1011E00020110E0000380808C83808000000003F31
:1011F000000000000070880808887000001C222190
:1012000021221C0000E010080810E000000031223C
:1012100022110F00000000C0C000000000000030DC
:10122000300000000000008000000000000080602E
:1012300000000000000080402010080000010204AF
:101240000810200040404040404040000404040496
:101250000404040000081020408000000020100852
:1012600004020100007048080808F0000000003087
:1012700036010000C030C828E810E0000718272415
:1012800023140B000000C038E0000000203C2302C3
:101290000227382008F8888888700000203F202026
:1012A00020110E00C0300808080838000718202058
:1012B0002010080008F808080810E000203F20204F
:1012C00020100F0008F88888E8081000203F202030
:1012D0002320180008F88888E8081000203F200024
:1012E00003000000C030080808380000071820205C
:1012F000221E020008F808000008F808203F21011B
:1013000001213F20000808F8080800000020203FC5
:101310002020000000000808F8080800C080808035
:101320007F00000008F888C028180800203F20012E
:101330002638200008F8080000000000203F202088
:101340002020300008F8F800F8F80800203F003F9F
:10135000003F200008F830C00008F808203F2000B7
:1013600007183F00E01008080810E0000F102020C8
:1013700020100F0008F808080808F000203F21019D
:1013800001010000E01008080810E0000F182424F4
:1013900038504F0008F8888888887000203F200067
:1013A000030C30200070880808083800003820211D
:1013B00021221C00180808F8080818000000203F27
:1013C0002000000008F808000008F808001F20208E
:1013D00020201F000878880000C83808000007385F
:1013E0000E010000F80800F80008F800033C0700B0
:1013F000073C0300081868808068180820302C0318
:10140000032C30200838C800C83808000000203FEE
:101410002000000010080808C838080020382621DD
:1014200020201800000000FE020202000000007FE1
:1014300040404000000C30C00000000000000001EF
:101440000638C00000020202FE00000000404040DA
:101450007F000000000004020202040000000000FF
:10146000000000000000000000000000808080807C
:101470008080808000020204000000000000000064
:1014800000000000000080808080000000192422FD
:1014900022223F2008F8008080000000003F112039
:1014A00020110E000000008080800000000E11203E
:1014B00020201100000000808088F800000E11201C
:1014C00020103F200000808080800000001F22222A
:1014D00022221300008080F0888888180020203F96
:1014E000202000000000808080808000006B9494A9
:1014F0009493600008F8008080800000203F210065
:1015000000203F2000809898000000000020203F2D
:1015100020200000000000809898000000C080801B
:10152000807F000008F8000080808000203F2402B7
:101530002D302000000808F8000000000020203FA7
:10154000202000008080808080808000203F20005C
:101550003F20003F8080008080800000203F2100ED
:1015600000203F200000808080800000001F20209D
:1015700020201F00808000808000000080FFA120CC
:1015800020110E000000008080808000000E1120DD
:1015900020A0FF80808080008080800020203F216C
:1015A000200001000000808080808000003324241F
:1015B00024241900008080E0808000000000001FCB
:1015C000202000008080000000808000001F20207C
:1015D00020103F20808080000080808000010E303D
:1015E0000806010080800080008080800F300C039E
:1015F0000C300F0000808000808080000020312EA1
:101600000E312000808080000080808080818E707C
:101610001806010000808080808080000021302C2E
:101620002221300000000000807C02020000000047
:10163000003F404000000000FF00000000000000EC
:10164000FF0000000002027C800000000040403FDC
:101650000000000000060101020204040000000076
:101660000000000084160008000000203000000088
:101670005C0E0008B41600083000002000040000D2
:101680006C0E0008000000000102030401020304C4
:101690000607080902040608000000000000000018
:1016A000000000000000000000000000000000003A
:0416B0000000000036
:04000005080000ED02
:00000001FF
